:100000000C94AE000C94D6000C94D6000C94D60040
:100010000C94D6000C94D6000C94D6000C94D60008
:100020000C94D6000C94D6000C94D6000C94D600F8
:100030000C94D6000C94D6000C94D6000C94D600E8
:100040000C94AE060C94D6000C947C060C945606C8
:100050000C94D6000C94D6000C94D6000C94D600C8
:100060000C94D6000C94D60008000000BE922449DF
:10007000123EABAAAA2ABECDCCCC4C3E00000080DA
:10008000BEABAAAAAA3E00000000BF000000803F4D
:100090000000000000084178D3BB4387D1133D190D
:1000A0000E3CC3BD4282AD2B3E68EC8276BED98F3A
:1000B000E1A93E4C80EFFFBE01C4FF7F3F0000007E
:1000C0000000CDCCCC3D0AD7233C17B7D13877CC34
:1000D0002B329595E6241FB14F0A0000803FCDCC0E
:1000E000CC3D6F12833A95BFD6337D1D9026B3CE9B
:1000F000010C000020410000C84200401C4620BC0A
:10010000BE4CCA1B0E5AAEC59D74000000002400F0
:1001100027002A0000000000250028002B0004040E
:10012000040404040404020202020202030303039F
:10013000030301020408102040800102040810207B
:100140000102040810200000000800020100000362
:1001500004070000000000000000E40811241FBE96
:10016000CFEFD8E0DEBFCDBF11E0A0E0B1E0E8E224
:10017000F8E102C005900D92AE34B107D9F721E045
:10018000AEE4B1E001C01D92AC3FB207E1F710E070
:10019000CEEAD0E004C02197FE010E94030CCD3AC4
:1001A000D107C9F70E94F8060C94120C0C940000B9
:1001B000AF92BF92CF92DF92EF92FF920F931F9375
:1001C000CF93DF936C017B018B01040F151FEB01B3
:1001D0005E01AE18BF08C017D10759F06991D6016A
:1001E000ED91FC910190F081E02DC6010995892BDC
:1001F00079F7C501DF91CF911F910F91FF90EF909B
:10020000DF90CF90BF90AF900895FC01538D448D47
:10021000252F30E0842F90E0821B930B541710F0B1
:10022000CF96089501970895FC01918D828D9817BE
:1002300061F0A28DAE0FBF2FB11D5D968C91928D96
:100240009F5F9F73928F90E008958FEF9FEF0895C7
:10025000FC01918D828D981731F0828DE80FF11D90
:10026000858D90E008958FEF9FEF0895FC01918DAB
:10027000228D892F90E0805C9F4F821B91098F73A4
:100280009927089587E591E00E94360121E0892BA6
:1002900009F420E0822F089580E090E0892B29F076
:1002A0000E94420181110C9400000895FC01A48D6C
:1002B000A80FB92FB11DA35ABF4F2C91848D90E088
:1002C00001968F739927848FA689B7892C93A0896B
:1002D000B1898C91837080648C93938D848D9813F5
:1002E00006C00288F389E02D80818F7D8083089588
:1002F000EF92FF920F931F93CF93DF93EC0181E076
:10030000888F9B8D8C8D98131AC0E889F98980811C
:1003100085FF15C09FB7F894EE89FF896083E8894F
:10032000F98980818370806480839FBF81E090E041
:10033000DF91CF911F910F91FF90EF900895F62ECE
:100340000B8D10E00F5F1F4F0F731127E02E8C8D68
:100350008E110CC00FB607FCFACFE889F9898081AD
:1003600085FFF5CFCE010E945601F1CFEB8DEC0F4A
:10037000FD2FF11DE35AFF4FF0829FB7F8940B8FCA
:10038000EA89FB8980818062CFCFCF93DF93EC0134
:10039000888D8823B9F0AA89BB89E889F9898C916D
:1003A00085FD03C0808186FD0DC00FB607FCF7CF29
:1003B0008C9185FFF2CF808185FFEDCFCE010E9429
:1003C0005601E9CFDF91CF910895CF93DF9390E06D
:1003D000FC01EE5CFE4F2491825E9E4FFC018491F5
:1003E0008823D1F090E0880F991FFC01E65FFE4F53
:1003F000A591B491FC01EC5EFE4FC591D4916111C1
:100400000EC09FB7F8948C91E22FE0958E238C93C9
:100410002881E223E8839FBFDF91CF9108958FB7B2
:10042000F894EC91E22BEC938FBFF6CF8E3008F06E
:100430008E508770806480937C0080917A00806405
:1004400080937A0080917A0086FDFCCF80917800BD
:100450009091790008953FB7F8948091530190915D
:100460005401A0915501B091560126B5A89B05C035
:100470002F3F19F00196A11DB11D3FBFBA2FA92F23
:10048000982F8827BC01CD01620F711D811D911D20
:1004900042E0660F771F881F991F4A95D1F708958C
:1004A0008F929F92AF92BF92CF92DF92EF92FF9284
:1004B0004B015C010E942B026B017C010E942B020C
:1004C0006C197D098E099F09683E7340810591056D
:1004D000A8F321E0821A9108A108B10888EEC80E9D
:1004E00083E0D81EE11CF11C81149104A104B10425
:1004F00029F7FF90EF90DF90CF90BF90AF909F9043
:100500008F900895CF93DF93EC0188819981DC016E
:10051000ED91FC910190F081E02D09952A813B81BC
:10052000820F931F9B838A83DF91CF910895CF938E
:10053000DF93EC0188819981DC01ED91FC910280CF
:10054000F381E02D09952A813B81820F931F9B83C4
:100550008A83DF91CF9108958F929F92AF92BF923D
:10056000CF92DF92EF92FF920F931F93CF93DF937F
:10057000CDB7DEB766970FB6F894DEBF0FBECDBF1E
:100580006C018E01095E1F4F78018AE0882E912C44
:10059000A12CB12CCB01BA01A50194010E94E10B61
:1005A000942F852F605DF80162938F01A901692F57
:1005B000782F411551056105710561F7A7014E1BA3
:1005C0005F0BBF01C6010E94970266960FB6F894B2
:1005D000DEBF0FBECDBFDF91CF911F910F91FF9076
:1005E000EF90DF90CF90BF90AF909F908F90089545
:1005F000EF92FF920F931F93CF93DF93EC017B0158
:1006000062E20E9482028701F80161918F016623F4
:1006100091F0E2E1F1E0F280FF2049F03296818131
:100620006813F9CF6CE5CE010E9482026F2DCE01D6
:100630000E948202E9CF62E2CE01DF91CF911F9149
:100640000F91FF90EF900C948202FC0125812223F0
:1006500039F0F8E02F0290011124820F931F0895C2
:1006600090E080E00895FB0101900020E9F73197C8
:10067000AF01461B570B0C9497022F923F924F925B
:100680005F926F927F928F929F92AF92BF92CF9222
:10069000DF92EF92FF920F931F93CF93DF93CDB72B
:1006A000DEB76C970FB6F894DEBF0FBECDBF8C01DE
:1006B0001B01DC0114968C9114978F77863009F416
:1006C00074C278F48230B0F0843008F04CC21296D4
:1006D0004D915C9113976D917C91C1010E9497029D
:1006E00026C28C3069F160F4883009F459C28A302E
:1006F00009F43FC263E271E0C1010E943303E5C126
:10070000803209F4ECC18034A9F76BE5C1010E9485
:100710008202F801008111810115110509F4DAC185
:10072000B101C8010E943D03C8010E9425038C014C
:10073000892B09F4CFC16CE2C1010E948202ECCF87
:10074000F801C080D180E280F380A7019601C70143
:10075000B6010E947E098111CDCF20E030E0A901D1
:10076000C701B6010E947E09882379F0A70196018E
:10077000C701B6010E9412099B01AC01C701B60175
:100780000E947E09882309F4B5CF20E030E0A9015A
:10079000C701B6010E947E0987FF08C06DE2C10152
:1007A0000E948202F7FAF094F7F8F09420E836E914
:1007B00048E15BE4C701B6010E94D60A87FD81C00B
:1007C00074E1A72EB12C00E210E0188E1F8AF5010B
:1007D000EE50FF4F2591359145915491C701B601D7
:1007E0000E94D60A87FD13C0F501EE53FF4F2591F5
:1007F000359145915491C701B6010E942B0B6B01B5
:100800007C012F89388D200F311F388F2F8B159544
:10081000079534E0A31AB1088CEFA8168FEFB8063D
:10082000B1F655245A9420E030E0A901C701B60181
:100830000E94D60A18160CF04BC02CEA35EC47E2A1
:1008400057E3C701B6010E947E0918160CF440C098
:10085000A52DB4E0AB02C0011124912C812CFC0128
:10086000E652FF4F3F019C012E503F4F59013FEF91
:10087000531671F1F301E80DF91D6591759185919C
:100880009491A70196010E94D60A18169CF4F501CE
:10089000E80DF91D2591359145915491C701B60197
:1008A0000E942B0B6B017C018F89988D801B910B13
:1008B000988F8F8B159507955A9494E0891A910813
:1008C000D6CF00E210E055E0552E188E1F8AABCF30
:1008D000C701B6010E94F5094B015C012B013C01E7
:1008E00006E080E492E4AFE0B0E0898F9A8FAB8FAE
:1008F000BC8F102F01509AE0491651046104710415
:10090000C8F0698D7A8D8B8D9C8D2AE030E040E0B7
:1009100050E00E94E10B298F3A8F4B8F5C8FC3010F
:10092000B2012AE030E040E050E00E94E10B2901F2
:100930003A01DFCFC501B4010E94240A9B01AC013A
:10094000C701B6010E9411096B017C01698D7A8D86
:100950008B8D9C8D0E94240A9B01AC01C701B601BE
:100960000E942B0B2B013C010E94F5096B017C01BD
:100970000E94240A9B01AC01C301B2010E9411092B
:100980009B01AC010E9412090E94F509C60ED71EF8
:10099000E81EF91E898D9A8DAB8DBC8DC816D906BF
:1009A000EA06FB06D8F09FEF891A990AA90AB90A44
:1009B000AF89B88DAB2B39F1BAE08B169104A10445
:1009C000B10408F1EF89F88D3196F88FEF8BC12CC7
:1009D000D12C7601812C912C540183942AE0422E53
:1009E000512C612C712CC701B601A30192010E9408
:1009F000E10B672B682B692B51F4111644F4690144
:100A00007A011150F0CFC12CD12C7601E7CFB5017E
:100A1000A401C1010E94AC02112371F14E01F1E168
:100A20008F0E911C012F54019AE0492E512C612CFC
:100A3000712C015068F0C701B601A30192010E9418
:100A4000E10B605DD4016E934D0169017A01F1CF34
:100A5000812F90E0BC0160957095F501E81BF90BC2
:100A600031978EE2808344275527461B570B6A0D2A
:100A70007B1DC1010E949702EF89F88DEF2B29F1B0
:100A800065E6C1010E9482020F89188D17FF07C019
:100A90006DE2C1010E948202119501951109FE01CA
:100AA00077969F018AE0E82EF12CC801B7010E94D9
:100AB000CD0B805D82938B01672BB9F7A9014E1B8B
:100AC0005F0BBF01C1010E949702D10112968D9167
:100AD0009C9130C06DE5C1010E948202F6CF6BE7A8
:100AE000C1010E948202F8010081118101151105E6
:100AF000D1F0D80116966D917C91C1010E94F80247
:100B00006AE3C1010E948202B101C8010E943D0353
:100B1000C8010E9425038C01892B29F06CE2C101D8
:100B20000E948202E3CF6DE7C1010E948202F101BF
:100B3000828193816C960FB6F894DEBF0FBECDBF55
:100B4000DF91CF911F910F91FF90EF90DF90CF90A9
:100B5000BF90AF909F908F907F906F905F904F90DD
:100B60003F902F9008956D917C91C1010E94F802F1
:100B7000DECFCD90DD90ED90FC90B701A601F7FEA1
:100B80000BC06DE2C1010E94820244275527BA01C1
:100B90004C195D096E097F09C1010E94AC02C7CFE3
:100BA0004D915D916D917C91F7CF8C9168E271E0F0
:100BB000811102C06DE271E0C1010E943303B7CF21
:100BC000CF92DF92EF92FF920F931F93CF93DF9319
:100BD000FC018481982F9F7739F480788062848328
:100BE0001182108213821282848185FD0CC0D0E0B4
:100BF000C0E0CE01DF91CF911F910F91FF90EF9058
:100C0000DF90CF9008956115710589F37A016B012A
:100C10008F01C081D1812097C1F16E817F816C15D8
:100C20007D0539F36115710529F0C6010E94090C93
:100C3000892BF9F2CE010E942503EC01ECCFE901EA
:100C40002897F701D583C483209789F2D80112969B
:100C5000ED91FC911397309791F0CE018E1B9F0B75
:100C600023E0959587952A95E1F785831396DC9384
:100C7000CE9312971D821C82DF82CE82BACFF801FA
:100C8000D183C083D383C283F5CFD70114962D912E
:100C90003C91159712968D919C91089628173907CB
:100CA00070F681E0D70118968C93A3CF1F920F9214
:100CB0000FB60F9211242F933F934F935F936F932F
:100CC0007F938F939F93AF93BF93EF93FF9387E5AA
:100CD00091E00E945601FF91EF91BF91AF919F91DA
:100CE0008F917F916F915F914F913F912F910F90D5
:100CF0000FBE0F901F9018951F920F920FB60F9274
:100D000011242F938F939F93EF93FF93E0916701AB
:100D1000F09168018081E0916D01F0916E0182FD9A
:100D20001BC09081809170018F5F8F732091710142
:100D3000821741F0E0917001F0E0E95AFE4F958F83
:100D400080937001FF91EF919F918F912F910F9060
:100D50000FBE0F901F9018958081F4CF1F920F92B5
:100D60000FB60F9211242F933F938F939F93AF93BE
:100D7000BF9380914F0190915001A0915101B0918A
:100D8000520130914E0123E0230F2D3758F5019683
:100D9000A11DB11D20934E0180934F0190935001EE
:100DA000A0935101B093520180915301909154014D
:100DB000A0915501B09156010196A11DB11D8093DE
:100DC000530190935401A0935501B0935601BF91E4
:100DD000AF919F918F913F912F910F900FBE0F90E8
:100DE0001F90189526E8230F0296A11DB11DD2CFA2
:100DF000CF93DF93CDB7DEB7C657D1090FB6F894BE
:100E0000DEBF0FBECDBF789484B5826084BD84B54B
:100E1000816084BD85B5826085BD85B5816085BDF5
:100E200080916E00816080936E00109281008091AD
:100E30008100826080938100809181008160809335
:100E40008100809180008160809380008091B1005A
:100E500084608093B1008091B00081608093B00085
:100E600080917A00846080937A0080917A00826019
:100E700080937A0080917A00816080937A008091DB
:100E80007A00806880937A001092C100E091670137
:100E9000F091680182E08083E0916301F091640148
:100EA0001082E0916501F091660180E180831092EB
:100EB0006F01E0916B01F0916C0186E08083E0911D
:100EC0006901F0916A01808180618083E09169010C
:100ED000F0916A01808188608083E0916901F091DE
:100EE0006A01808180688083E0916901F0916A01E4
:100EF00080818F7D808360E08FE00E94E50160E06B
:100F00008EE00E94E50160E080E10E94E50161E081
:100F10008CE00E94E5013AE2232E31E0332E5E019F
:100F20008FE0A80EB11C8E010D581F4F40E0842E9B
:100F300040E0942E8FE00E941602BC01990F880BAE
:100F4000990B0E94260A9B01AC0160E070EC8FE7D0
:100F500094E40E94830920E030E040E85FE30E94CF
:100F6000110920E030E44CE156E40E942B0B0E9472
:100F7000E30A6B017C012CE63FEC48E554E30E9458
:100F80002B0BA70196010E942B0BA70196010E9433
:100F90002B0B2B013C0126ED34E649E759E3C70151
:100FA000B6010E942B0B2BEC38E444E85AE30E9474
:100FB00012099B01AC01C301B2010E9412099B01FD
:100FC000AC0160E070E080E89FE30E94830923E3C6
:100FD00033E948E853E40E9411096093F8017093E3
:100FE000F9018093FA019093FB018EE00E941602B2
:100FF0009093F7018093F60180E10E941602880F1A
:10100000991F9093F5018093F40187E591E00E9488
:101010003601181619060CF031C087E591E00E94E0
:101020001401813459F5E2E5F1E08491EEE3F1E059
:101030009491F10124912223D9F0882359F083302F
:1010400009F4ABC008F09EC0813009F4ACC0823016
:1010500009F4ADC0E22FF0E0EE0FFF1FEC5EFE4F93
:10106000A591B4918FB7F8942C91922B9C938FBF3C
:1010700068EB7BE080E090E00E945002BA82A98297
:10108000BC82AB821E830D8318870F8319861E8650
:10109000AE014F5F5F4F63E371E0CE010A960E949D
:1010A000E005FC01892B81F04091F8015091F90194
:1010B0006091FA017091FB01948190789C60948317
:1010C0004083518362837383AE014F5F5F4F6FE351
:1010D00071E0CE010A960E94E005FC01892B81F0A7
:1010E0002091F6013091F701948190789A60948371
:1010F000C901330FAA0BBB0B80839183A283B383F7
:10110000AE014F5F5F4F68E471E0CE010A960E9426
:10111000E005FC01892B81F02091F4013091F5016B
:10112000948190789A609483C901330FAA0BBB0B0A
:1011300080839183A283B38387E591E0F801918353
:10114000808313821282B801CE010A960E943D0369
:1011500042E050E06BE471E087E591E00E94D80046
:1011600060E375E780E090E00E94500281149104F2
:1011700009F4E0CE0E944201882309F4DBCE0E94EC
:101180000000D8CE8730B1F08830D1F0843009F03B
:1011900061CF809180008F7D03C0809180008F7728
:1011A0008093800057CF84B58F7784BD53CF84B5AB
:1011B0008F7DFBCF8091B0008F778093B0004ACFB6
:1011C0008091B0008F7DF9CFE7E5F1E013821282C4
:1011D00088EE93E0A0E0B0E084839583A683B78394
:1011E00084E091E09183808385EC90E0958784870B
:1011F00084EC90E09787868780EC90E0918B808BE1
:1012000081EC90E0938B828B82EC90E0958B848BC9
:1012100086EC90E0978B868B118E128E138E148E37
:1012200008955058BB27AA270E9429090C949C0AAC
:101230000E948E0A38F00E94950A20F039F49F3FF0
:1012400019F426F40C948B0A0EF4E095E7FB0C9449
:10125000850AE92F0E94AD0A58F3BA17620773078F
:101260008407950720F079F4A6F50C94CF0A0EF4C4
:10127000E0950B2EBA2FA02D0B01B90190010C01A6
:10128000CA01A0011124FF27591B99F0593F50F4BE
:10129000503E68F11A16F040A22F232F342F442716
:1012A000585FF3CF469537952795A795F04053950E
:1012B000C9F77EF41F16BA0B620B730B840BBAF0DE
:1012C0009150A1F0FF0FBB1F661F771F881FC2F749
:1012D0000EC0BA0F621F731F841F48F4879577955D
:1012E0006795B795F7959E3F08F0B0CF9395880F17
:1012F00008F09927EE0F9795879508950E94610A47
:1013000008F481E008950E9497090C949C0A0E94B9
:10131000950A58F00E948E0A40F029F45F3F29F0A8
:101320000C94850A51110C94D00A0C948B0A0E94DB
:10133000AD0A68F39923B1F3552391F3951B550B2F
:10134000BB27AA2762177307840738F09F5F5F4F98
:10135000220F331F441FAA1FA9F335D00E2E3AF0D7
:10136000E0E832D091505040E695001CCAF72BD0EF
:10137000FE2F29D0660F771F881FBB1F2617370740
:101380004807AB07B0E809F0BB0B802DBF01FF2772
:1013900093585F4F3AF09E3F510578F00C94850AC0
:1013A0000C94D00A5F3FE4F3983ED4F3869577958A
:1013B0006795B795F7959F5FC9F7880F911D96952B
:1013C000879597F90895E1E0660F771F881FBB1F87
:1013D000621773078407BA0720F0621B730B840B34
:1013E000BA0BEE1F88F7E09508950E94B50A88F0C1
:1013F0009F5798F0B92F9927B751B0F0E1F0660FD9
:10140000771F881F991F1AF0BA95C9F714C0B13019
:1014100091F00E94CF0AB1E008950C94CF0A672F93
:10142000782F8827B85F39F0B93FCCF38695779548
:101430006795B395D9F73EF4909580957095619531
:101440007F4F8F4F9F4F0895E89409C097FB3EF45C
:1014500090958095709561957F4F8F4F9F4F992301
:10146000A9F0F92F96E9BB279395F695879577957F
:101470006795B795F111F8CFFAF4BB0F11F460FF3F
:101480001BC06F5F7F4F8F4F9F4F16C0882311F097
:1014900096E911C0772321F09EE8872F762F05C0AB
:1014A000662371F096E8862F70E060E02AF09A9546
:1014B000660F771F881FDAF7880F9695879597F93B
:1014C0000895990F0008550FAA0BE0E8FEEF1616D5
:1014D0001706E807F907C0F012161306E407F50728
:1014E00098F0621B730B840B950B39F40A2661F09C
:1014F000232B242B252B21F408950A2609F4A1403F
:10150000A6958FEF811D811D089597F99F6780E84B
:1015100070E060E008959FEF80EC089500240A9445
:101520001616170618060906089500240A941216BE
:101530001306140605060895092E0394000C11F4F1
:10154000882352F0BB0F40F4BF2B11F460FF04C09E
:101550006F5F7F4F8F4F9F4F089557FD9058440FF7
:10156000551F59F05F3F71F04795880F97FB991F02
:1015700061F09F3F79F087950895121613061406BF
:10158000551FF2CF4695F1DF08C01616170618064C
:10159000991FF1CF86957105610508940895E89427
:1015A000BB2766277727CB0197F908950E94610A28
:1015B00008F48FEF089516F00C94980B0C948B0A96
:1015C00068940C94850A0E94B50AA8F39923C1F384
:1015D000AEF3DF93CF931F930F93FF92C92FDD27B5
:1015E00088232AF02197660F771F881FDAF720E0FB
:1015F00030E040E85FEB9FE3883920F0803E38F030
:1016000021968F770E941209E8E6F0E004C00E945C
:101610001209E5E9F0E00E94A60B8B01BE01EC0186
:10162000FB2E6F5771097595771F880B990B0E94D8
:10163000260A28E132E741E35FE30E943E0BAF2D2B
:101640009801AE01FF900F911F91CF91DF910E9401
:1016500029090C949C0A0E943E0B0C949C0A0E943F
:101660008E0A38F00E94950A20F0952311F00C9410
:10167000850A0C948B0A11240C94D00A0E94AD0A9E
:1016800070F3959FC1F3950F50E0551F629FF001D5
:10169000729FBB27F00DB11D639FAA27F00DB11DEE
:1016A000AA1F649F6627B00DA11D661F829F222777
:1016B000B00DA11D621F739FB00DA11D621F839FFE
:1016C000A00D611D221F749F3327A00D611D231FD4
:1016D000849F600D211D822F762F6A2F11249F5722
:1016E00050409AF0F1F088234AF0EE0FFF1FBB1F25
:1016F000661F771F881F91505040A9F79E3F5105E4
:1017000080F00C94850A0C94D00A5F3FE4F3983E75
:10171000D4F3869577956795B795F795E7959F5F8D
:10172000C1F7FE2B880F911D9695879597F908951F
:101730009F3F31F0915020F4879577956795B79545
:10174000880F911D9695879597F90895DF93CF930C
:101750001F930F93FF92EF92DF927B018C016894AD
:1017600006C0DA2EEF010E943E0BFE01E894A5911F
:101770002591359145915591A6F3EF010E942909D4
:10178000FE019701A801DA9469F7DF90EF90FF90CE
:101790000F911F91CF91DF910895AA1BBB1B51E1BF
:1017A00007C0AA1FBB1FA617B70710F0A61BB70BD1
:1017B000881F991F5A95A9F780959095BC01CD0176
:1017C0000895A1E21A2EAA1BBB1BFD010DC0AA1F82
:1017D000BB1FEE1FFF1FA217B307E407F50720F09A
:1017E000A21BB30BE40BF50B661F771F881F991F15
:1017F0001A9469F760957095809590959B01AC015E
:10180000BD01CF010895EE0FFF1F0590F491E02D6B
:101810000994FB01DC018D91019080190110D9F32D
:08182000990B0895F894FFCF25
:10182800000000007801D8000501C5013601140147
:1018380028012F2F22225C5C6208660C6E0A720D4A
:101848007409006E756C6C00747275650066616C65
:1018580073650054656D70657261747572610054CA
:0E1868007572626964657A005048000D0A00CE
:00000001FF
